{
  "address": "0xd030DD807Ea89BDe66BB7E47094Bf5215c123503",
  "abi": [
    {
      "inputs": [
        {
          "internalType": "string",
          "name": "_tld",
          "type": "string"
        }
      ],
      "stateMutability": "payable",
      "type": "constructor"
    },
    {
      "anonymous": false,
      "inputs": [
        {
          "indexed": true,
          "internalType": "address",
          "name": "owner",
          "type": "address"
        },
        {
          "indexed": true,
          "internalType": "address",
          "name": "approved",
          "type": "address"
        },
        {
          "indexed": true,
          "internalType": "uint256",
          "name": "tokenId",
          "type": "uint256"
        }
      ],
      "name": "Approval",
      "type": "event"
    },
    {
      "anonymous": false,
      "inputs": [
        {
          "indexed": true,
          "internalType": "address",
          "name": "owner",
          "type": "address"
        },
        {
          "indexed": true,
          "internalType": "address",
          "name": "operator",
          "type": "address"
        },
        {
          "indexed": false,
          "internalType": "bool",
          "name": "approved",
          "type": "bool"
        }
      ],
      "name": "ApprovalForAll",
      "type": "event"
    },
    {
      "anonymous": false,
      "inputs": [
        {
          "indexed": true,
          "internalType": "address",
          "name": "from",
          "type": "address"
        },
        {
          "indexed": true,
          "internalType": "address",
          "name": "to",
          "type": "address"
        },
        {
          "indexed": true,
          "internalType": "uint256",
          "name": "tokenId",
          "type": "uint256"
        }
      ],
      "name": "Transfer",
      "type": "event"
    },
    {
      "inputs": [
        {
          "internalType": "address",
          "name": "to",
          "type": "address"
        },
        {
          "internalType": "uint256",
          "name": "tokenId",
          "type": "uint256"
        }
      ],
      "name": "approve",
      "outputs": [],
      "stateMutability": "nonpayable",
      "type": "function"
    },
    {
      "inputs": [
        {
          "internalType": "address",
          "name": "owner",
          "type": "address"
        }
      ],
      "name": "balanceOf",
      "outputs": [
        {
          "internalType": "uint256",
          "name": "",
          "type": "uint256"
        }
      ],
      "stateMutability": "view",
      "type": "function"
    },
    {
      "inputs": [
        {
          "internalType": "string",
          "name": "",
          "type": "string"
        }
      ],
      "name": "domains",
      "outputs": [
        {
          "internalType": "address",
          "name": "",
          "type": "address"
        }
      ],
      "stateMutability": "view",
      "type": "function"
    },
    {
      "inputs": [
        {
          "internalType": "string",
          "name": "name",
          "type": "string"
        }
      ],
      "name": "getAddress",
      "outputs": [
        {
          "internalType": "address",
          "name": "",
          "type": "address"
        }
      ],
      "stateMutability": "view",
      "type": "function"
    },
    {
      "inputs": [
        {
          "internalType": "uint256",
          "name": "tokenId",
          "type": "uint256"
        }
      ],
      "name": "getApproved",
      "outputs": [
        {
          "internalType": "address",
          "name": "",
          "type": "address"
        }
      ],
      "stateMutability": "view",
      "type": "function"
    },
    {
      "inputs": [
        {
          "internalType": "string",
          "name": "name",
          "type": "string"
        }
      ],
      "name": "getRecord",
      "outputs": [
        {
          "internalType": "string",
          "name": "",
          "type": "string"
        }
      ],
      "stateMutability": "view",
      "type": "function"
    },
    {
      "inputs": [
        {
          "internalType": "address",
          "name": "owner",
          "type": "address"
        },
        {
          "internalType": "address",
          "name": "operator",
          "type": "address"
        }
      ],
      "name": "isApprovedForAll",
      "outputs": [
        {
          "internalType": "bool",
          "name": "",
          "type": "bool"
        }
      ],
      "stateMutability": "view",
      "type": "function"
    },
    {
      "inputs": [],
      "name": "name",
      "outputs": [
        {
          "internalType": "string",
          "name": "",
          "type": "string"
        }
      ],
      "stateMutability": "view",
      "type": "function"
    },
    {
      "inputs": [
        {
          "internalType": "uint256",
          "name": "tokenId",
          "type": "uint256"
        }
      ],
      "name": "ownerOf",
      "outputs": [
        {
          "internalType": "address",
          "name": "",
          "type": "address"
        }
      ],
      "stateMutability": "view",
      "type": "function"
    },
    {
      "inputs": [
        {
          "internalType": "string",
          "name": "name",
          "type": "string"
        }
      ],
      "name": "price",
      "outputs": [
        {
          "internalType": "uint256",
          "name": "",
          "type": "uint256"
        }
      ],
      "stateMutability": "pure",
      "type": "function"
    },
    {
      "inputs": [
        {
          "internalType": "string",
          "name": "",
          "type": "string"
        }
      ],
      "name": "records",
      "outputs": [
        {
          "internalType": "string",
          "name": "",
          "type": "string"
        }
      ],
      "stateMutability": "view",
      "type": "function"
    },
    {
      "inputs": [
        {
          "internalType": "string",
          "name": "name",
          "type": "string"
        }
      ],
      "name": "register",
      "outputs": [],
      "stateMutability": "payable",
      "type": "function"
    },
    {
      "inputs": [
        {
          "internalType": "address",
          "name": "from",
          "type": "address"
        },
        {
          "internalType": "address",
          "name": "to",
          "type": "address"
        },
        {
          "internalType": "uint256",
          "name": "tokenId",
          "type": "uint256"
        }
      ],
      "name": "safeTransferFrom",
      "outputs": [],
      "stateMutability": "nonpayable",
      "type": "function"
    },
    {
      "inputs": [
        {
          "internalType": "address",
          "name": "from",
          "type": "address"
        },
        {
          "internalType": "address",
          "name": "to",
          "type": "address"
        },
        {
          "internalType": "uint256",
          "name": "tokenId",
          "type": "uint256"
        },
        {
          "internalType": "bytes",
          "name": "data",
          "type": "bytes"
        }
      ],
      "name": "safeTransferFrom",
      "outputs": [],
      "stateMutability": "nonpayable",
      "type": "function"
    },
    {
      "inputs": [
        {
          "internalType": "address",
          "name": "operator",
          "type": "address"
        },
        {
          "internalType": "bool",
          "name": "approved",
          "type": "bool"
        }
      ],
      "name": "setApprovalForAll",
      "outputs": [],
      "stateMutability": "nonpayable",
      "type": "function"
    },
    {
      "inputs": [
        {
          "internalType": "string",
          "name": "name",
          "type": "string"
        },
        {
          "internalType": "string",
          "name": "record",
          "type": "string"
        }
      ],
      "name": "setRecord",
      "outputs": [],
      "stateMutability": "nonpayable",
      "type": "function"
    },
    {
      "inputs": [
        {
          "internalType": "bytes4",
          "name": "interfaceId",
          "type": "bytes4"
        }
      ],
      "name": "supportsInterface",
      "outputs": [
        {
          "internalType": "bool",
          "name": "",
          "type": "bool"
        }
      ],
      "stateMutability": "view",
      "type": "function"
    },
    {
      "inputs": [],
      "name": "symbol",
      "outputs": [
        {
          "internalType": "string",
          "name": "",
          "type": "string"
        }
      ],
      "stateMutability": "view",
      "type": "function"
    },
    {
      "inputs": [],
      "name": "tld",
      "outputs": [
        {
          "internalType": "string",
          "name": "",
          "type": "string"
        }
      ],
      "stateMutability": "view",
      "type": "function"
    },
    {
      "inputs": [
        {
          "internalType": "uint256",
          "name": "tokenId",
          "type": "uint256"
        }
      ],
      "name": "tokenURI",
      "outputs": [
        {
          "internalType": "string",
          "name": "",
          "type": "string"
        }
      ],
      "stateMutability": "view",
      "type": "function"
    },
    {
      "inputs": [
        {
          "internalType": "address",
          "name": "from",
          "type": "address"
        },
        {
          "internalType": "address",
          "name": "to",
          "type": "address"
        },
        {
          "internalType": "uint256",
          "name": "tokenId",
          "type": "uint256"
        }
      ],
      "name": "transferFrom",
      "outputs": [],
      "stateMutability": "nonpayable",
      "type": "function"
    }
  ],
  "transactionHash": "0x925fd7b1b07b7a0a0cc6da849d208a084a0a6c2a4c197820953365615f2583a8",
  "args": [
    "bbx"
  ],
  "numDeployments": 1,
  "solcInputHash": "56c3cc4289ba375775e62d73a5dcba9a",
  "bytecode": "0x61092060405261086b60808181529062002afb60a03980516200002b91600991602090910190620001d9565b5060408051808201909152600d8082526c1e17ba32bc3a1f1e17b9bb339f60991b60209092019182526200006291600a91620001d9565b5060405162003366380380620033668339810160408190526200008591620002c8565b604080518082018252601681527f42656174626f786572204e616d65205365727669636500000000000000000000602080830191825283518085019094526003845262424e5360e81b908401528151919291620000e591600091620001d9565b508051620000fb906001906020840190620001d9565b505081516200011391506008906020840190620001d9565b50620001606040518060400160405280601881526020017f2573206e616d652073657276696365206465706c6f7965640000000000000000815250826200016760201b62000f831760201c565b506200041d565b620001b4828260405160240162000180929190620003ae565b60408051601f198184030181529190526020810180516001600160e01b03908116634b5c427760e01b17909152620001b816565b5050565b80516a636f6e736f6c652e6c6f67602083016000808483855afa5050505050565b828054620001e790620003e0565b90600052602060002090601f0160209004810192826200020b576000855562000256565b82601f106200022657805160ff191683800117855562000256565b8280016001018555821562000256579182015b828111156200025657825182559160200191906001019062000239565b506200026492915062000268565b5090565b5b8082111562000264576000815560010162000269565b634e487b7160e01b600052604160045260246000fd5b60005b83811015620002b257818101518382015260200162000298565b83811115620002c2576000848401525b50505050565b600060208284031215620002db57600080fd5b81516001600160401b0380821115620002f357600080fd5b818401915084601f8301126200030857600080fd5b8151818111156200031d576200031d6200027f565b604051601f8201601f19908116603f011681019083821181831017156200034857620003486200027f565b816040528281528760208487010111156200036257600080fd5b6200037583602083016020880162000295565b979650505050505050565b600081518084526200039a81602086016020860162000295565b601f01601f19169290920160200192915050565b604081526000620003c3604083018562000380565b8281036020840152620003d7818562000380565b95945050505050565b600181811c90821680620003f557607f821691505b602082108114156200041757634e487b7160e01b600052602260045260246000fd5b50919050565b6126ce806200042d6000396000f3fe60806040526004361061012a5760003560e01c80636352211e116100ab578063bf40fac11161006f578063bf40fac114610359578063c1880a9814610379578063c87b56dd14610399578063e985e9c5146103b9578063f2c298be14610402578063fe2c61981461041557600080fd5b80636352211e146102b657806370a08231146102d657806395d89b4114610304578063a22cb46514610319578063b88d4fde1461033957600080fd5b806323b872dd116100f257806323b872dd1461020057806326449235146102205780632d5514321461026157806342842e0e14610276578063541e771d1461029657600080fd5b806301ffc9a71461012f57806306fdde0314610164578063081812fc14610186578063095ea7b3146101be57806311dd8845146101e0575b600080fd5b34801561013b57600080fd5b5061014f61014a366004611cc5565b610435565b60405190151581526020015b60405180910390f35b34801561017057600080fd5b50610179610487565b60405161015b9190611d3a565b34801561019257600080fd5b506101a66101a1366004611d4d565b610519565b6040516001600160a01b03909116815260200161015b565b3480156101ca57600080fd5b506101de6101d9366004611d82565b610540565b005b3480156101ec57600080fd5b506101796101fb366004611df5565b61065b565b34801561020c57600080fd5b506101de61021b366004611e37565b61070e565b34801561022c57600080fd5b506101a661023b366004611eff565b8051602081830181018051600b825292820191909301209152546001600160a01b031681565b34801561026d57600080fd5b5061017961073f565b34801561028257600080fd5b506101de610291366004611e37565b6107cd565b3480156102a257600080fd5b506101796102b1366004611eff565b6107e8565b3480156102c257600080fd5b506101a66102d1366004611d4d565b61080c565b3480156102e257600080fd5b506102f66102f1366004611f48565b61086c565b60405190815260200161015b565b34801561031057600080fd5b506101796108f2565b34801561032557600080fd5b506101de610334366004611f63565b610901565b34801561034557600080fd5b506101de610354366004611f9f565b610910565b34801561036557600080fd5b506101a6610374366004611df5565b610948565b34801561038557600080fd5b506101de61039436600461201b565b61097d565b3480156103a557600080fd5b506101796103b4366004611d4d565b610a40565b3480156103c557600080fd5b5061014f6103d4366004612087565b6001600160a01b03918216600090815260056020908152604080832093909416825291909152205460ff1690565b6101de610410366004611df5565b610b51565b34801561042157600080fd5b506102f6610430366004611df5565b610eaa565b60006001600160e01b031982166380ac58cd60e01b148061046657506001600160e01b03198216635b5e139f60e01b145b8061048157506301ffc9a760e01b6001600160e01b03198316145b92915050565b606060008054610496906120ba565b80601f01602080910402602001604051908101604052809291908181526020018280546104c2906120ba565b801561050f5780601f106104e45761010080835404028352916020019161050f565b820191906000526020600020905b8154815290600101906020018083116104f257829003601f168201915b5050505050905090565b600061052482610fc8565b506000908152600460205260409020546001600160a01b031690565b600061054b8261080c565b9050806001600160a01b0316836001600160a01b031614156105be5760405162461bcd60e51b815260206004820152602160248201527f4552433732313a20617070726f76616c20746f2063757272656e74206f776e656044820152603960f91b60648201526084015b60405180910390fd5b336001600160a01b03821614806105da57506105da81336103d4565b61064c5760405162461bcd60e51b815260206004820152603e60248201527f4552433732313a20617070726f76652063616c6c6572206973206e6f7420746f60448201527f6b656e206f776e6572206e6f7220617070726f76656420666f7220616c6c000060648201526084016105b5565b610656838361102a565b505050565b6060600c838360405161066f9291906120f5565b90815260200160405180910390208054610688906120ba565b80601f01602080910402602001604051908101604052809291908181526020018280546106b4906120ba565b80156107015780601f106106d657610100808354040283529160200191610701565b820191906000526020600020905b8154815290600101906020018083116106e457829003601f168201915b5050505050905092915050565b6107183382611098565b6107345760405162461bcd60e51b81526004016105b590612105565b610656838383611116565b6008805461074c906120ba565b80601f0160208091040260200160405190810160405280929190818152602001828054610778906120ba565b80156107c55780601f1061079a576101008083540402835291602001916107c5565b820191906000526020600020905b8154815290600101906020018083116107a857829003601f168201915b505050505081565b61065683838360405180602001604052806000815250610910565b8051602081830181018051600c825292820191909301209152805461074c906120ba565b6000818152600260205260408120546001600160a01b0316806104815760405162461bcd60e51b8152602060048201526018602482015277115490cdcc8c4e881a5b9d985b1a59081d1bdad95b88125160421b60448201526064016105b5565b60006001600160a01b0382166108d65760405162461bcd60e51b815260206004820152602960248201527f4552433732313a2061646472657373207a65726f206973206e6f7420612076616044820152683634b21037bbb732b960b91b60648201526084016105b5565b506001600160a01b031660009081526003602052604090205490565b606060018054610496906120ba565b61090c3383836112b2565b5050565b61091a3383611098565b6109365760405162461bcd60e51b81526004016105b590612105565b61094284848484611381565b50505050565b6000600b838360405161095c9291906120f5565b908152604051908190036020019020546001600160a01b0316905092915050565b336001600160a01b0316600b85856040516109999291906120f5565b908152604051908190036020019020546001600160a01b031614610a0b5760405162461bcd60e51b8152602060048201526024808201527f596f7520617265206e6f7420746865206f776e6572206f66207468697320646f60448201526336b0b4b760e11b60648201526084016105b5565b8181600c8686604051610a1f9291906120f5565b908152604051908190036020019020610a39929091611ba2565b5050505050565b6060610a4b82610fc8565b60008281526006602052604081208054610a64906120ba565b80601f0160208091040260200160405190810160405280929190818152602001828054610a90906120ba565b8015610add5780601f10610ab257610100808354040283529160200191610add565b820191906000526020600020905b815481529060010190602001808311610ac057829003601f168201915b505050505090506000610afb60408051602081019091526000815290565b9050805160001415610b0e575092915050565b815115610b40578082604051602001610b28929190612153565b60405160208183030381529060405292505050919050565b610b49846113b4565b949350505050565b60006001600160a01b0316600b8383604051610b6e9291906120f5565b908152604051908190036020019020546001600160a01b031614610bd45760405162461bcd60e51b815260206004820152601960248201527f446f6d61696e20616c726561647920726567697374657265640000000000000060448201526064016105b5565b6000610be08383610eaa565b905080341015610c275760405162461bcd60e51b8152602060048201526012602482015271496e73756666696369656e742066756e647360701b60448201526064016105b5565b600083836008604051602001610c3f9392919061221c565b60405160208183030381529060405290506000600982600a604051602001610c6993929190612245565b60405160208183030381529060405290506000610c8560075490565b90506000610cc887878080601f01602080910402602001604051908101604052809392919081815260200183838082843760009201919091525061142892505050565b90506000610cd58261152b565b9050610d316040518060600160405280602e815260200161266b602e913989898080601f016020809104026020016040519081016040528093929190818152602001838380828437600092019190915250889250611629915050565b6000610d6786610d4087611670565b84604051602001610d5393929190612278565b604051602081830303815290604052611670565b9050600081604051602001610d7c9190612370565b60408051601f19818403018152606083019091526039808352909250610daa91906125b960208301396117d6565b610dda6040518060400160405280600e81526020016d46696e616c20746f6b656e55524960901b81525082610f83565b610dfb6040518060600160405280603981526020016125f2603991396117d6565b610e053386611819565b610e0f8582611833565b33600b8b8b604051610e229291906120f5565b90815260405190819003602001902080546001600160a01b03929092166001600160a01b0319909216919091179055610e5f600780546001019055565b610e9e6040518060400160405280601b81526020017f2573206861732072656769737465726564206120646f6d61696e210000000000815250336118cd565b50505050505050505050565b600080610eec84848080601f01602080910402602001604051908101604052809392919081815260200183838082843760009201919091525061142892505050565b905060008111610f3e5760405162461bcd60e51b815260206004820152601d60248201527f446f6d61696e206e616d65206d757374206265206e6f6e2d656d70747900000060448201526064016105b5565b8060031415610f58576706f05b59d3b20000915050610481565b8060041415610f7257670429d069189e0000915050610481565b67016345785d8a0000915050610481565b61090c8282604051602401610f999291906123b5565b60408051601f198184030181529190526020810180516001600160e01b0316634b5c427760e01b17905261190e565b6000818152600260205260409020546001600160a01b03166110275760405162461bcd60e51b8152602060048201526018602482015277115490cdcc8c4e881a5b9d985b1a59081d1bdad95b88125160421b60448201526064016105b5565b50565b600081815260046020526040902080546001600160a01b0319166001600160a01b038416908117909155819061105f8261080c565b6001600160a01b03167f8c5be1e5ebec7d5bd14f71427d1e84f3dd0314c0f7b2291e5b200ac8c7c3b92560405160405180910390a45050565b6000806110a48361080c565b9050806001600160a01b0316846001600160a01b031614806110eb57506001600160a01b0380821660009081526005602090815260408083209388168352929052205460ff165b80610b495750836001600160a01b031661110484610519565b6001600160a01b031614949350505050565b826001600160a01b03166111298261080c565b6001600160a01b03161461118d5760405162461bcd60e51b815260206004820152602560248201527f4552433732313a207472616e736665722066726f6d20696e636f72726563742060448201526437bbb732b960d91b60648201526084016105b5565b6001600160a01b0382166111ef5760405162461bcd60e51b8152602060048201526024808201527f4552433732313a207472616e7366657220746f20746865207a65726f206164646044820152637265737360e01b60648201526084016105b5565b6111fa60008261102a565b6001600160a01b03831660009081526003602052604081208054600192906112239084906123f9565b90915550506001600160a01b0382166000908152600360205260408120805460019290611251908490612410565b909155505060008181526002602052604080822080546001600160a01b0319166001600160a01b0386811691821790925591518493918716917fddf252ad1be2c89b69c2b068fc378daa952ba7f163c4a11628f55a4df523b3ef91a4505050565b816001600160a01b0316836001600160a01b031614156113145760405162461bcd60e51b815260206004820152601960248201527f4552433732313a20617070726f766520746f2063616c6c65720000000000000060448201526064016105b5565b6001600160a01b03838116600081815260056020908152604080832094871680845294825291829020805460ff191686151590811790915591519182527f17307eab39ab6107e8899845ad3d59bd9653f200f220920489ca2b5937696c31910160405180910390a3505050565b61138c848484611116565b6113988484848461192f565b6109425760405162461bcd60e51b81526004016105b590612428565b60606113bf82610fc8565b60006113d660408051602081019091526000815290565b905060008151116113f65760405180602001604052806000815250611421565b806114008461152b565b604051602001611411929190612153565b6040516020818303038152906040525b9392505050565b8051600090819081905b8082101561152257600085838151811061144e5761144e61247a565b01602001516001600160f81b0319169050600160ff1b81101561147d57611476600184612410565b925061150f565b600760fd1b6001600160f81b03198216101561149e57611476600284612410565b600f60fc1b6001600160f81b0319821610156114bf57611476600384612410565b601f60fb1b6001600160f81b0319821610156114e057611476600484612410565b603f60fa1b6001600160f81b03198216101561150157611476600584612410565b61150c600684612410565b92505b508261151a81612490565b935050611432565b50909392505050565b60608161154f5750506040805180820190915260018152600360fc1b602082015290565b8160005b8115611579578061156381612490565b91506115729050600a836124c1565b9150611553565b60008167ffffffffffffffff81111561159457611594611e73565b6040519080825280601f01601f1916602001820160405280156115be576020820181803683370190505b5090505b8415610b49576115d36001836123f9565b91506115e0600a866124d5565b6115eb906030612410565b60f81b8183815181106116005761160061247a565b60200101906001600160f81b031916908160001a905350611622600a866124c1565b94506115c2565b610656838383604051602401611641939291906124e9565b60408051601f198184030181529190526020810180516001600160e01b031663f362ca5960e01b17905261190e565b606081516000141561169057505060408051602081019091526000815290565b600060405180606001604052806040815260200161262b60409139905060006003845160026116bf9190612410565b6116c991906124c1565b6116d490600461251f565b905060006116e3826020612410565b67ffffffffffffffff8111156116fb576116fb611e73565b6040519080825280601f01601f191660200182016040528015611725576020820181803683370190505b509050818152600183018586518101602084015b81831015611791576003830192508251603f8160121c168501518253600182019150603f81600c1c168501518253600182019150603f8160061c168501518253600182019150603f8116850151825350600101611739565b6003895106600181146117ab57600281146117bc576117c8565b613d3d60f01b6001198301526117c8565b603d60f81b6000198301525b509398975050505050505050565b611027816040516024016117ea9190611d3a565b60408051601f198184030181529190526020810180516001600160e01b031663104c13eb60e21b17905261190e565b61090c828260405180602001604052806000815250611a2d565b6000828152600260205260409020546001600160a01b03166118ae5760405162461bcd60e51b815260206004820152602e60248201527f45524337323155524953746f726167653a2055524920736574206f66206e6f6e60448201526d32bc34b9ba32b73a103a37b5b2b760911b60648201526084016105b5565b6000828152600660209081526040909120825161065692840190611c26565b61090c82826040516024016118e392919061253e565b60408051601f198184030181529190526020810180516001600160e01b031663319af33360e01b1790525b80516a636f6e736f6c652e6c6f67602083016000808483855afa5050505050565b60006001600160a01b0384163b15611a2257604051630a85bd0160e11b81526001600160a01b0385169063150b7a0290611973903390899088908890600401612568565b6020604051808303816000875af19250505080156119ae575060408051601f3d908101601f191682019092526119ab9181019061259b565b60015b611a08573d8080156119dc576040519150601f19603f3d011682016040523d82523d6000602084013e6119e1565b606091505b508051611a005760405162461bcd60e51b81526004016105b590612428565b805181602001fd5b6001600160e01b031916630a85bd0160e11b149050610b49565b506001949350505050565b611a378383611a60565b611a44600084848461192f565b6106565760405162461bcd60e51b81526004016105b590612428565b6001600160a01b038216611ab65760405162461bcd60e51b815260206004820181905260248201527f4552433732313a206d696e7420746f20746865207a65726f206164647265737360448201526064016105b5565b6000818152600260205260409020546001600160a01b031615611b1b5760405162461bcd60e51b815260206004820152601c60248201527f4552433732313a20746f6b656e20616c7265616479206d696e7465640000000060448201526064016105b5565b6001600160a01b0382166000908152600360205260408120805460019290611b44908490612410565b909155505060008181526002602052604080822080546001600160a01b0319166001600160a01b03861690811790915590518392907fddf252ad1be2c89b69c2b068fc378daa952ba7f163c4a11628f55a4df523b3ef908290a45050565b828054611bae906120ba565b90600052602060002090601f016020900481019282611bd05760008555611c16565b82601f10611be95782800160ff19823516178555611c16565b82800160010185558215611c16579182015b82811115611c16578235825591602001919060010190611bfb565b50611c22929150611c9a565b5090565b828054611c32906120ba565b90600052602060002090601f016020900481019282611c545760008555611c16565b82601f10611c6d57805160ff1916838001178555611c16565b82800160010185558215611c16579182015b82811115611c16578251825591602001919060010190611c7f565b5b80821115611c225760008155600101611c9b565b6001600160e01b03198116811461102757600080fd5b600060208284031215611cd757600080fd5b813561142181611caf565b60005b83811015611cfd578181015183820152602001611ce5565b838111156109425750506000910152565b60008151808452611d26816020860160208601611ce2565b601f01601f19169290920160200192915050565b6020815260006114216020830184611d0e565b600060208284031215611d5f57600080fd5b5035919050565b80356001600160a01b0381168114611d7d57600080fd5b919050565b60008060408385031215611d9557600080fd5b611d9e83611d66565b946020939093013593505050565b60008083601f840112611dbe57600080fd5b50813567ffffffffffffffff811115611dd657600080fd5b602083019150836020828501011115611dee57600080fd5b9250929050565b60008060208385031215611e0857600080fd5b823567ffffffffffffffff811115611e1f57600080fd5b611e2b85828601611dac565b90969095509350505050565b600080600060608486031215611e4c57600080fd5b611e5584611d66565b9250611e6360208501611d66565b9150604084013590509250925092565b634e487b7160e01b600052604160045260246000fd5b600067ffffffffffffffff80841115611ea457611ea4611e73565b604051601f8501601f19908116603f01168101908282118183101715611ecc57611ecc611e73565b81604052809350858152868686011115611ee557600080fd5b858560208301376000602087830101525050509392505050565b600060208284031215611f1157600080fd5b813567ffffffffffffffff811115611f2857600080fd5b8201601f81018413611f3957600080fd5b610b4984823560208401611e89565b600060208284031215611f5a57600080fd5b61142182611d66565b60008060408385031215611f7657600080fd5b611f7f83611d66565b915060208301358015158114611f9457600080fd5b809150509250929050565b60008060008060808587031215611fb557600080fd5b611fbe85611d66565b9350611fcc60208601611d66565b925060408501359150606085013567ffffffffffffffff811115611fef57600080fd5b8501601f8101871361200057600080fd5b61200f87823560208401611e89565b91505092959194509250565b6000806000806040858703121561203157600080fd5b843567ffffffffffffffff8082111561204957600080fd5b61205588838901611dac565b9096509450602087013591508082111561206e57600080fd5b5061207b87828801611dac565b95989497509550505050565b6000806040838503121561209a57600080fd5b6120a383611d66565b91506120b160208401611d66565b90509250929050565b600181811c908216806120ce57607f821691505b602082108114156120ef57634e487b7160e01b600052602260045260246000fd5b50919050565b8183823760009101908152919050565b6020808252602e908201527f4552433732313a2063616c6c6572206973206e6f7420746f6b656e206f776e6560408201526d1c881b9bdc88185c1c1c9bdd995960921b606082015260800190565b60008351612165818460208801611ce2565b835190830190612179818360208801611ce2565b01949350505050565b8054600090600181811c908083168061219c57607f831692505b60208084108214156121be57634e487b7160e01b600052602260045260246000fd5b8180156121d257600181146121e357612210565b60ff19861689528489019650612210565b60008881526020902060005b868110156122085781548b8201529085019083016121ef565b505084890196505b50505050505092915050565b82848237601760f91b81840190815260009061223b6001820185612182565b9695505050505050565b60006122518286612182565b8451612261818360208901611ce2565b61226d81830186612182565b979650505050505050565b693d913730b6b2911d101160b11b8152835160009061229e81600a850160208901611ce2565b7f222c20226465736372697074696f6e223a20224120646f6d61696e206f6e2074600a918401918201527f68652042656174626f786572206e616d652073657276696365222c2022696d61602a8201527f6765223a2022646174613a696d6167652f7376672b786d6c3b6261736536342c604a820152845161232781606a840160208901611ce2565b6b1116113632b733ba34111d1160a11b606a92909101918201528351612354816076840160208801611ce2565b61227d60f01b6076929091019182015260780195945050505050565b7f646174613a6170706c69636174696f6e2f6a736f6e3b6261736536342c0000008152600082516123a881601d850160208701611ce2565b91909101601d0192915050565b6040815260006123c86040830185611d0e565b82810360208401526123da8185611d0e565b95945050505050565b634e487b7160e01b600052601160045260246000fd5b60008282101561240b5761240b6123e3565b500390565b60008219821115612423576124236123e3565b500190565b60208082526032908201527f4552433732313a207472616e7366657220746f206e6f6e20455243373231526560408201527131b2b4bb32b91034b6b83632b6b2b73a32b960711b606082015260800190565b634e487b7160e01b600052603260045260246000fd5b60006000198214156124a4576124a46123e3565b5060010190565b634e487b7160e01b600052601260045260246000fd5b6000826124d0576124d06124ab565b500490565b6000826124e4576124e46124ab565b500690565b6060815260006124fc6060830186611d0e565b828103602084015261250e8186611d0e565b915050826040830152949350505050565b6000816000190483118215151615612539576125396123e3565b500290565b6040815260006125516040830185611d0e565b905060018060a01b03831660208301529392505050565b6001600160a01b038581168252841660208201526040810183905260806060820181905260009061223b90830184611d0e565b6000602082840312156125ad57600080fd5b815161142181611caf56fe0a2d2d2d2d2d2d2d2d2d2d2d2d2d2d2d2d2d2d2d2d2d2d2d2d2d2d2d2d2d2d2d2d2d2d2d2d2d2d2d2d2d2d2d2d2d2d2d2d2d2d2d2d2d2d2d2d2d2d2d2d2d2d2d2d2d2d2d2d2d2d2d2d2d2d2d2d2d2d2d2d2d2d2d2d2d2d2d2d2d2d2d2d2d2d2d2d2d2d2d2d2d2d2d2d2d2d2d2d2d2d2d2d0a4142434445464748494a4b4c4d4e4f505152535455565758595a6162636465666768696a6b6c6d6e6f707172737475767778797a303132333435363738392b2f5265676973746572696e67202573206f6e2074686520636f6e7472616374207769746820746f6b656e4944202564a2646970667358221220651f07bce6030946807c4387cf82d4b4b69adecf4a3933f3522c0ce04d81b9f264736f6c634300080a00333c73766720786d6c6e733d22687474703a2f2f7777772e77332e6f72672f323030302f737667222077696474683d2232373022206865696768743d22323730222066696c6c3d226e6f6e65223e3c706174682066696c6c3d2275726c282342292220643d224d302030683237307632373048307a222f3e3c646566733e3c66696c7465722069643d22412220636f6c6f722d696e746572706f6c6174696f6e2d66696c746572733d2273524742222066696c746572556e6974733d227573657253706163654f6e55736522206865696768743d22323730222077696474683d22323730223e3c666544726f70536861646f772064783d2230222064793d22312220737464446576696174696f6e3d22322220666c6f6f642d6f7061636974793d222e323235222077696474683d223230302522206865696768743d2232303025222f3e3c2f66696c7465723e3c2f646566733e3c7061746820643d224d37322e3836332034322e393439632d2e3636382d2e3338372d312e3432362d2e35392d322e3139372d2e3539732d312e3532392e3230342d322e3139372e35396c2d31302e30383120362e3033322d362e383520332e3933342d31302e30383120362e303332632d2e3636382e3338372d312e3432362e35392d322e3139372e3539732d312e3532392d2e3230342d322e3139372d2e35396c2d382e3031332d342e37323161342e353220342e35322030203020312d312e3538392d312e363136632d2e3338342d2e3636352d2e3539342d312e3431382d2e3630382d322e313837762d392e3331632d2e3031332d2e3737352e3138352d312e3533382e3537322d322e32303861342e323520342e323520302030203120312e3632352d312e3539356c372e3838342d342e3539632e3636382d2e33383720312e3432362d2e353920322e3139372d2e353973312e3532392e32303420322e3139372e35396c372e38383420342e353961342e353220342e353220302030203120312e35383920312e363136632e3338342e3636352e35393420312e3431382e36303820322e31383776362e3033326c362e38352d342e303635762d362e303332632e3031332d2e3737352d2e3138352d312e3533382d2e3537322d322e32303861342e323520342e32352030203020302d312e3632352d312e3539354c34312e3435362032342e3539632d2e3636382d2e3338372d312e3432362d2e35392d322e3139372d2e3539732d312e3532392e3230342d322e3139372e35396c2d31342e38363420382e36353561342e323520342e32352030203020302d312e36323520312e353935632d2e3338372e36372d2e35383520312e3433342d2e35373220322e3230387631372e343431632d2e3031332e3737352e31383520312e3533382e35373220322e32303861342e323520342e323520302030203020312e36323520312e3539356c31342e38363420382e363535632e3636382e33383720312e3432362e353920322e3139372e353973312e3532392d2e32303420322e3139372d2e35396c31302e3038312d352e39303120362e38352d342e3036352031302e3038312d352e393031632e3636382d2e33383720312e3432362d2e353920322e3139372d2e353973312e3532392e32303420322e3139372e35396c372e38383420342e353961342e353220342e353220302030203120312e35383920312e363136632e3338342e3636352e35393420312e3431382e36303820322e31383776392e333131632e3031332e3737352d2e31383520312e3533382d2e35373220322e32303861342e323520342e32352030203020312d312e36323520312e3539356c2d372e38383420342e373231632d2e3636382e3338372d312e3432362e35392d322e3139372e3539732d312e3532392d2e3230342d322e3139372d2e35396c2d372e3838342d342e353961342e353220342e35322030203020312d312e3538392d312e363136632d2e3338352d2e3636352d2e3539342d312e3431382d2e3630382d322e313837762d362e3033326c2d362e383520342e30363576362e303332632d2e3031332e3737352e31383520312e3533382e35373220322e32303861342e323520342e323520302030203020312e36323520312e3539356c31342e38363420382e363535632e3636382e33383720312e3432362e353920322e3139372e353973312e3532392d2e32303420322e3139372d2e35396c31342e3836342d382e363535632e3635372d2e33393420312e3230342d2e393520312e3538392d312e363136732e3539342d312e3431382e3630392d322e3138375635352e353338632e3031332d2e3737352d2e3138352d312e3533382d2e3537322d322e32303861342e323520342e32352030203020302d312e3632352d312e3539356c2d31342e3939332d382e3738367a222066696c6c3d2223666666222f3e3c646566733e3c6c696e6561724772616469656e742069643d2242222078313d2230222079313d2230222078323d22323730222079323d2232373022206772616469656e74556e6974733d227573657253706163654f6e557365223e3c73746f702073746f702d636f6c6f723d2223636235656565222f3e3c73746f70206f66667365743d2231222073746f702d636f6c6f723d2223306364376534222073746f702d6f7061636974793d222e3939222f3e3c2f6c696e6561724772616469656e743e3c2f646566733e3c7465787420783d2233322e352220793d223233312220666f6e742d73697a653d223237222066696c6c3d2223666666222066696c7465723d2275726c282341292220666f6e742d66616d696c793d22506c7573204a616b617274612053616e732c44656a6156752053616e732c4e6f746f20436f6c6f7220456d6f6a692c4170706c6520436f6c6f7220456d6f6a692c73616e732d73657269662220666f6e742d7765696768743d22626f6c64223e",
  "devdoc": {
    "kind": "dev",
    "methods": {
      "approve(address,uint256)": {
        "details": "See {IERC721-approve}."
      },
      "balanceOf(address)": {
        "details": "See {IERC721-balanceOf}."
      },
      "getApproved(uint256)": {
        "details": "See {IERC721-getApproved}."
      },
      "isApprovedForAll(address,address)": {
        "details": "See {IERC721-isApprovedForAll}."
      },
      "name()": {
        "details": "See {IERC721Metadata-name}."
      },
      "ownerOf(uint256)": {
        "details": "See {IERC721-ownerOf}."
      },
      "safeTransferFrom(address,address,uint256)": {
        "details": "See {IERC721-safeTransferFrom}."
      },
      "safeTransferFrom(address,address,uint256,bytes)": {
        "details": "See {IERC721-safeTransferFrom}."
      },
      "setApprovalForAll(address,bool)": {
        "details": "See {IERC721-setApprovalForAll}."
      },
      "supportsInterface(bytes4)": {
        "details": "See {IERC165-supportsInterface}."
      },
      "symbol()": {
        "details": "See {IERC721Metadata-symbol}."
      },
      "tokenURI(uint256)": {
        "details": "See {IERC721Metadata-tokenURI}."
      },
      "transferFrom(address,address,uint256)": {
        "details": "See {IERC721-transferFrom}."
      }
    },
    "version": 1
  },
  "userdoc": {
    "kind": "user",
    "methods": {},
    "version": 1
  },
  "storageLayout": {
    "storage": [
      {
        "astId": 25,
        "contract": "contracts/Domains.sol:Domains",
        "label": "_name",
        "offset": 0,
        "slot": "0",
        "type": "t_string_storage"
      },
      {
        "astId": 27,
        "contract": "contracts/Domains.sol:Domains",
        "label": "_symbol",
        "offset": 0,
        "slot": "1",
        "type": "t_string_storage"
      },
      {
        "astId": 31,
        "contract": "contracts/Domains.sol:Domains",
        "label": "_owners",
        "offset": 0,
        "slot": "2",
        "type": "t_mapping(t_uint256,t_address)"
      },
      {
        "astId": 35,
        "contract": "contracts/Domains.sol:Domains",
        "label": "_balances",
        "offset": 0,
        "slot": "3",
        "type": "t_mapping(t_address,t_uint256)"
      },
      {
        "astId": 39,
        "contract": "contracts/Domains.sol:Domains",
        "label": "_tokenApprovals",
        "offset": 0,
        "slot": "4",
        "type": "t_mapping(t_uint256,t_address)"
      },
      {
        "astId": 45,
        "contract": "contracts/Domains.sol:Domains",
        "label": "_operatorApprovals",
        "offset": 0,
        "slot": "5",
        "type": "t_mapping(t_address,t_mapping(t_address,t_bool))"
      },
      {
        "astId": 1013,
        "contract": "contracts/Domains.sol:Domains",
        "label": "_tokenURIs",
        "offset": 0,
        "slot": "6",
        "type": "t_mapping(t_uint256,t_string_storage)"
      },
      {
        "astId": 1938,
        "contract": "contracts/Domains.sol:Domains",
        "label": "_tokenIds",
        "offset": 0,
        "slot": "7",
        "type": "t_struct(Counter)1475_storage"
      },
      {
        "astId": 1940,
        "contract": "contracts/Domains.sol:Domains",
        "label": "tld",
        "offset": 0,
        "slot": "8",
        "type": "t_string_storage"
      },
      {
        "astId": 1943,
        "contract": "contracts/Domains.sol:Domains",
        "label": "svgPartOne",
        "offset": 0,
        "slot": "9",
        "type": "t_string_storage"
      },
      {
        "astId": 1946,
        "contract": "contracts/Domains.sol:Domains",
        "label": "svgPartTwo",
        "offset": 0,
        "slot": "10",
        "type": "t_string_storage"
      },
      {
        "astId": 1950,
        "contract": "contracts/Domains.sol:Domains",
        "label": "domains",
        "offset": 0,
        "slot": "11",
        "type": "t_mapping(t_string_memory_ptr,t_address)"
      },
      {
        "astId": 1954,
        "contract": "contracts/Domains.sol:Domains",
        "label": "records",
        "offset": 0,
        "slot": "12",
        "type": "t_mapping(t_string_memory_ptr,t_string_storage)"
      }
    ],
    "types": {
      "t_address": {
        "encoding": "inplace",
        "label": "address",
        "numberOfBytes": "20"
      },
      "t_bool": {
        "encoding": "inplace",
        "label": "bool",
        "numberOfBytes": "1"
      },
      "t_mapping(t_address,t_bool)": {
        "encoding": "mapping",
        "key": "t_address",
        "label": "mapping(address => bool)",
        "numberOfBytes": "32",
        "value": "t_bool"
      },
      "t_mapping(t_address,t_mapping(t_address,t_bool))": {
        "encoding": "mapping",
        "key": "t_address",
        "label": "mapping(address => mapping(address => bool))",
        "numberOfBytes": "32",
        "value": "t_mapping(t_address,t_bool)"
      },
      "t_mapping(t_address,t_uint256)": {
        "encoding": "mapping",
        "key": "t_address",
        "label": "mapping(address => uint256)",
        "numberOfBytes": "32",
        "value": "t_uint256"
      },
      "t_mapping(t_string_memory_ptr,t_address)": {
        "encoding": "mapping",
        "key": "t_string_memory_ptr",
        "label": "mapping(string => address)",
        "numberOfBytes": "32",
        "value": "t_address"
      },
      "t_mapping(t_string_memory_ptr,t_string_storage)": {
        "encoding": "mapping",
        "key": "t_string_memory_ptr",
        "label": "mapping(string => string)",
        "numberOfBytes": "32",
        "value": "t_string_storage"
      },
      "t_mapping(t_uint256,t_address)": {
        "encoding": "mapping",
        "key": "t_uint256",
        "label": "mapping(uint256 => address)",
        "numberOfBytes": "32",
        "value": "t_address"
      },
      "t_mapping(t_uint256,t_string_storage)": {
        "encoding": "mapping",
        "key": "t_uint256",
        "label": "mapping(uint256 => string)",
        "numberOfBytes": "32",
        "value": "t_string_storage"
      },
      "t_string_memory_ptr": {
        "encoding": "bytes",
        "label": "string",
        "numberOfBytes": "32"
      },
      "t_string_storage": {
        "encoding": "bytes",
        "label": "string",
        "numberOfBytes": "32"
      },
      "t_struct(Counter)1475_storage": {
        "encoding": "inplace",
        "label": "struct Counters.Counter",
        "members": [
          {
            "astId": 1474,
            "contract": "contracts/Domains.sol:Domains",
            "label": "_value",
            "offset": 0,
            "slot": "0",
            "type": "t_uint256"
          }
        ],
        "numberOfBytes": "32"
      },
      "t_uint256": {
        "encoding": "inplace",
        "label": "uint256",
        "numberOfBytes": "32"
      }
    }
  }
}